{
  "_format": "hh-sol-artifact-1",
  "contractName": "Survey",
  "sourceName": "contracts/Survey.sol",
  "abi": [
    {
      "inputs": [],
      "stateMutability": "nonpayable",
      "type": "constructor"
    },
    {
      "anonymous": false,
      "inputs": [
        {
          "indexed": true,
          "internalType": "address",
          "name": "owner",
          "type": "address"
        },
        {
          "indexed": true,
          "internalType": "address",
          "name": "approved",
          "type": "address"
        },
        {
          "indexed": true,
          "internalType": "uint256",
          "name": "tokenId",
          "type": "uint256"
        }
      ],
      "name": "Approval",
      "type": "event"
    },
    {
      "anonymous": false,
      "inputs": [
        {
          "indexed": true,
          "internalType": "address",
          "name": "owner",
          "type": "address"
        },
        {
          "indexed": true,
          "internalType": "address",
          "name": "operator",
          "type": "address"
        },
        {
          "indexed": false,
          "internalType": "bool",
          "name": "approved",
          "type": "bool"
        }
      ],
      "name": "ApprovalForAll",
      "type": "event"
    },
    {
      "anonymous": false,
      "inputs": [
        {
          "indexed": false,
          "internalType": "uint256",
          "name": "_fromTokenId",
          "type": "uint256"
        },
        {
          "indexed": false,
          "internalType": "uint256",
          "name": "_toTokenId",
          "type": "uint256"
        }
      ],
      "name": "BatchMetadataUpdate",
      "type": "event"
    },
    {
      "anonymous": false,
      "inputs": [
        {
          "indexed": false,
          "internalType": "uint256",
          "name": "_tokenId",
          "type": "uint256"
        }
      ],
      "name": "MetadataUpdate",
      "type": "event"
    },
    {
      "anonymous": false,
      "inputs": [
        {
          "indexed": true,
          "internalType": "address",
          "name": "previousOwner",
          "type": "address"
        },
        {
          "indexed": true,
          "internalType": "address",
          "name": "newOwner",
          "type": "address"
        }
      ],
      "name": "OwnershipTransferred",
      "type": "event"
    },
    {
      "anonymous": false,
      "inputs": [
        {
          "indexed": false,
          "internalType": "uint256",
          "name": "formId",
          "type": "uint256"
        },
        {
          "indexed": false,
          "internalType": "uint256",
          "name": "questionId",
          "type": "uint256"
        },
        {
          "indexed": false,
          "internalType": "string",
          "name": "questionText",
          "type": "string"
        }
      ],
      "name": "QuestionAdded",
      "type": "event"
    },
    {
      "anonymous": false,
      "inputs": [
        {
          "indexed": false,
          "internalType": "uint256",
          "name": "formId",
          "type": "uint256"
        },
        {
          "indexed": false,
          "internalType": "address",
          "name": "respondent",
          "type": "address"
        },
        {
          "indexed": false,
          "internalType": "string",
          "name": "answer",
          "type": "string"
        }
      ],
      "name": "ResponseAdded",
      "type": "event"
    },
    {
      "anonymous": false,
      "inputs": [
        {
          "indexed": false,
          "internalType": "uint256",
          "name": "formId",
          "type": "uint256"
        },
        {
          "indexed": false,
          "internalType": "address",
          "name": "user",
          "type": "address"
        },
        {
          "indexed": false,
          "internalType": "string",
          "name": "title",
          "type": "string"
        }
      ],
      "name": "SurveyFormCreated",
      "type": "event"
    },
    {
      "anonymous": false,
      "inputs": [
        {
          "indexed": true,
          "internalType": "address",
          "name": "from",
          "type": "address"
        },
        {
          "indexed": true,
          "internalType": "address",
          "name": "to",
          "type": "address"
        },
        {
          "indexed": true,
          "internalType": "uint256",
          "name": "tokenId",
          "type": "uint256"
        }
      ],
      "name": "Transfer",
      "type": "event"
    },
    {
      "inputs": [
        {
          "internalType": "uint256",
          "name": "formId",
          "type": "uint256"
        },
        {
          "internalType": "string[]",
          "name": "answers",
          "type": "string[]"
        }
      ],
      "name": "addResponses",
      "outputs": [],
      "stateMutability": "nonpayable",
      "type": "function"
    },
    {
      "inputs": [
        {
          "internalType": "address",
          "name": "to",
          "type": "address"
        },
        {
          "internalType": "uint256",
          "name": "tokenId",
          "type": "uint256"
        }
      ],
      "name": "approve",
      "outputs": [],
      "stateMutability": "nonpayable",
      "type": "function"
    },
    {
      "inputs": [
        {
          "internalType": "address",
          "name": "owner",
          "type": "address"
        }
      ],
      "name": "balanceOf",
      "outputs": [
        {
          "internalType": "uint256",
          "name": "",
          "type": "uint256"
        }
      ],
      "stateMutability": "view",
      "type": "function"
    },
    {
      "inputs": [
        {
          "internalType": "string",
          "name": "title",
          "type": "string"
        },
        {
          "internalType": "string[]",
          "name": "questionTexts",
          "type": "string[]"
        }
      ],
      "name": "createSurveyForm",
      "outputs": [],
      "stateMutability": "nonpayable",
      "type": "function"
    },
    {
      "inputs": [
        {
          "internalType": "string",
          "name": "name",
          "type": "string"
        },
        {
          "internalType": "string",
          "name": "description",
          "type": "string"
        }
      ],
      "name": "createUserProfile",
      "outputs": [],
      "stateMutability": "nonpayable",
      "type": "function"
    },
    {
      "inputs": [
        {
          "internalType": "address",
          "name": "userAddress",
          "type": "address"
        }
      ],
      "name": "doesUserProfileExist",
      "outputs": [
        {
          "internalType": "bool",
          "name": "",
          "type": "bool"
        }
      ],
      "stateMutability": "view",
      "type": "function"
    },
    {
      "inputs": [],
      "name": "formCounter",
      "outputs": [
        {
          "internalType": "uint256",
          "name": "",
          "type": "uint256"
        }
      ],
      "stateMutability": "view",
      "type": "function"
    },
    {
      "inputs": [
        {
          "internalType": "uint256",
          "name": "tokenId",
          "type": "uint256"
        }
      ],
      "name": "getApproved",
      "outputs": [
        {
          "internalType": "address",
          "name": "",
          "type": "address"
        }
      ],
      "stateMutability": "view",
      "type": "function"
    },
    {
      "inputs": [
        {
          "internalType": "uint256",
          "name": "formId",
          "type": "uint256"
        }
      ],
      "name": "getQuestionsForForm",
      "outputs": [
        {
          "internalType": "string[]",
          "name": "",
          "type": "string[]"
        }
      ],
      "stateMutability": "view",
      "type": "function"
    },
    {
      "inputs": [
        {
          "internalType": "uint256",
          "name": "formId",
          "type": "uint256"
        }
      ],
      "name": "getResponses",
      "outputs": [
        {
          "internalType": "address[]",
          "name": "",
          "type": "address[]"
        },
        {
          "internalType": "string[]",
          "name": "",
          "type": "string[]"
        }
      ],
      "stateMutability": "view",
      "type": "function"
    },
    {
      "inputs": [
        {
          "internalType": "address",
          "name": "userAddress",
          "type": "address"
        }
      ],
      "name": "getUserProfile",
      "outputs": [
        {
          "internalType": "string",
          "name": "name",
          "type": "string"
        },
        {
          "internalType": "string",
          "name": "description",
          "type": "string"
        }
      ],
      "stateMutability": "view",
      "type": "function"
    },
    {
      "inputs": [
        {
          "internalType": "address",
          "name": "owner",
          "type": "address"
        },
        {
          "internalType": "address",
          "name": "operator",
          "type": "address"
        }
      ],
      "name": "isApprovedForAll",
      "outputs": [
        {
          "internalType": "bool",
          "name": "",
          "type": "bool"
        }
      ],
      "stateMutability": "view",
      "type": "function"
    },
    {
      "inputs": [],
      "name": "name",
      "outputs": [
        {
          "internalType": "string",
          "name": "",
          "type": "string"
        }
      ],
      "stateMutability": "view",
      "type": "function"
    },
    {
      "inputs": [],
      "name": "owner",
      "outputs": [
        {
          "internalType": "address",
          "name": "",
          "type": "address"
        }
      ],
      "stateMutability": "view",
      "type": "function"
    },
    {
      "inputs": [
        {
          "internalType": "uint256",
          "name": "tokenId",
          "type": "uint256"
        }
      ],
      "name": "ownerOf",
      "outputs": [
        {
          "internalType": "address",
          "name": "",
          "type": "address"
        }
      ],
      "stateMutability": "view",
      "type": "function"
    },
    {
      "inputs": [],
      "name": "questionCounter",
      "outputs": [
        {
          "internalType": "uint256",
          "name": "",
          "type": "uint256"
        }
      ],
      "stateMutability": "view",
      "type": "function"
    },
    {
      "inputs": [
        {
          "internalType": "uint256",
          "name": "",
          "type": "uint256"
        }
      ],
      "name": "questions",
      "outputs": [
        {
          "internalType": "string",
          "name": "text",
          "type": "string"
        }
      ],
      "stateMutability": "view",
      "type": "function"
    },
    {
      "inputs": [],
      "name": "renounceOwnership",
      "outputs": [],
      "stateMutability": "nonpayable",
      "type": "function"
    },
    {
      "inputs": [
        {
          "internalType": "uint256",
          "name": "",
          "type": "uint256"
        }
      ],
      "name": "responses",
      "outputs": [
        {
          "internalType": "uint256",
          "name": "formId",
          "type": "uint256"
        },
        {
          "internalType": "address",
          "name": "respondent",
          "type": "address"
        },
        {
          "internalType": "string",
          "name": "answer",
          "type": "string"
        }
      ],
      "stateMutability": "view",
      "type": "function"
    },
    {
      "inputs": [
        {
          "internalType": "address",
          "name": "to",
          "type": "address"
        },
        {
          "internalType": "string",
          "name": "uri",
          "type": "string"
        }
      ],
      "name": "safeMint",
      "outputs": [],
      "stateMutability": "nonpayable",
      "type": "function"
    },
    {
      "inputs": [
        {
          "internalType": "address",
          "name": "from",
          "type": "address"
        },
        {
          "internalType": "address",
          "name": "to",
          "type": "address"
        },
        {
          "internalType": "uint256",
          "name": "tokenId",
          "type": "uint256"
        }
      ],
      "name": "safeTransferFrom",
      "outputs": [],
      "stateMutability": "nonpayable",
      "type": "function"
    },
    {
      "inputs": [
        {
          "internalType": "address",
          "name": "from",
          "type": "address"
        },
        {
          "internalType": "address",
          "name": "to",
          "type": "address"
        },
        {
          "internalType": "uint256",
          "name": "tokenId",
          "type": "uint256"
        },
        {
          "internalType": "bytes",
          "name": "data",
          "type": "bytes"
        }
      ],
      "name": "safeTransferFrom",
      "outputs": [],
      "stateMutability": "nonpayable",
      "type": "function"
    },
    {
      "inputs": [
        {
          "internalType": "address",
          "name": "operator",
          "type": "address"
        },
        {
          "internalType": "bool",
          "name": "approved",
          "type": "bool"
        }
      ],
      "name": "setApprovalForAll",
      "outputs": [],
      "stateMutability": "nonpayable",
      "type": "function"
    },
    {
      "inputs": [
        {
          "internalType": "bytes4",
          "name": "interfaceId",
          "type": "bytes4"
        }
      ],
      "name": "supportsInterface",
      "outputs": [
        {
          "internalType": "bool",
          "name": "",
          "type": "bool"
        }
      ],
      "stateMutability": "view",
      "type": "function"
    },
    {
      "inputs": [
        {
          "internalType": "uint256",
          "name": "",
          "type": "uint256"
        }
      ],
      "name": "surveyForms",
      "outputs": [
        {
          "internalType": "address",
          "name": "user",
          "type": "address"
        },
        {
          "internalType": "string",
          "name": "title",
          "type": "string"
        }
      ],
      "stateMutability": "view",
      "type": "function"
    },
    {
      "inputs": [],
      "name": "symbol",
      "outputs": [
        {
          "internalType": "string",
          "name": "",
          "type": "string"
        }
      ],
      "stateMutability": "view",
      "type": "function"
    },
    {
      "inputs": [
        {
          "internalType": "uint256",
          "name": "tokenId",
          "type": "uint256"
        }
      ],
      "name": "tokenURI",
      "outputs": [
        {
          "internalType": "string",
          "name": "",
          "type": "string"
        }
      ],
      "stateMutability": "view",
      "type": "function"
    },
    {
      "inputs": [
        {
          "internalType": "address",
          "name": "from",
          "type": "address"
        },
        {
          "internalType": "address",
          "name": "to",
          "type": "address"
        },
        {
          "internalType": "uint256",
          "name": "tokenId",
          "type": "uint256"
        }
      ],
      "name": "transferFrom",
      "outputs": [],
      "stateMutability": "nonpayable",
      "type": "function"
    },
    {
      "inputs": [
        {
          "internalType": "address",
          "name": "newOwner",
          "type": "address"
        }
      ],
      "name": "transferOwnership",
      "outputs": [],
      "stateMutability": "nonpayable",
      "type": "function"
    },
    {
      "inputs": [
        {
          "internalType": "address",
          "name": "",
          "type": "address"
        }
      ],
      "name": "userProfiles",
      "outputs": [
        {
          "internalType": "string",
          "name": "name",
          "type": "string"
        },
        {
          "internalType": "string",
          "name": "description",
          "type": "string"
        }
      ],
      "stateMutability": "view",
      "type": "function"
    }
  ],
  "bytecode": "0x60806040523480156200001157600080fd5b506040518060400160405280600681526020017f53757276657900000000000000000000000000000000000000000000000000008152506040518060400160405280600381526020017f4d544b000000000000000000000000000000000000000000000000000000000081525081600090816200008f919062000412565b508060019081620000a1919062000412565b505050620000c4620000b8620000ca60201b60201c565b620000d260201b60201c565b620004f9565b600033905090565b6000600760009054906101000a900473ffffffffffffffffffffffffffffffffffffffff16905081600760006101000a81548173ffffffffffffffffffffffffffffffffffffffff021916908373ffffffffffffffffffffffffffffffffffffffff1602179055508173ffffffffffffffffffffffffffffffffffffffff168173ffffffffffffffffffffffffffffffffffffffff167f8be0079c531659141344cd1fd0a4f28419497f9722a3daafe3b4186f6b6457e060405160405180910390a35050565b600081519050919050565b7f4e487b7100000000000000000000000000000000000000000000000000000000600052604160045260246000fd5b7f4e487b7100000000000000000000000000000000000000000000000000000000600052602260045260246000fd5b600060028204905060018216806200021a57607f821691505b60208210810362000230576200022f620001d2565b5b50919050565b60008190508160005260206000209050919050565b60006020601f8301049050919050565b600082821b905092915050565b6000600883026200029a7fffffffffffffffffffffffffffffffffffffffffffffffffffffffffffffffff826200025b565b620002a686836200025b565b95508019841693508086168417925050509392505050565b6000819050919050565b6000819050919050565b6000620002f3620002ed620002e784620002be565b620002c8565b620002be565b9050919050565b6000819050919050565b6200030f83620002d2565b620003276200031e82620002fa565b84845462000268565b825550505050565b600090565b6200033e6200032f565b6200034b81848462000304565b505050565b5b8181101562000373576200036760008262000334565b60018101905062000351565b5050565b601f821115620003c2576200038c8162000236565b62000397846200024b565b81016020851015620003a7578190505b620003bf620003b6856200024b565b83018262000350565b50505b505050565b600082821c905092915050565b6000620003e760001984600802620003c7565b1980831691505092915050565b6000620004028383620003d4565b9150826002028217905092915050565b6200041d8262000198565b67ffffffffffffffff811115620004395762000438620001a3565b5b62000445825462000201565b6200045282828562000377565b600060209050601f8311600181146200048a576000841562000475578287015190505b620004818582620003f4565b865550620004f1565b601f1984166200049a8662000236565b60005b82811015620004c4578489015182556001820191506020850194506020810190506200049d565b86831015620004e45784890151620004e0601f891682620003d4565b8355505b6001600288020188555050505b505050505050565b6149c080620005096000396000f3fe608060405234801561001057600080fd5b50600436106101da5760003560e01c806379ce204011610104578063c22247b8116100a2578063e985e9c511610071578063e985e9c51461058f578063ed35d7e5146105bf578063f2cabd88146105f1578063f2fde38b14610621576101da565b8063c22247b814610509578063c87b56dd14610527578063d204c45e14610557578063dcc2179b14610573576101da565b8063987ee156116100de578063987ee15614610482578063a22cb465146104b3578063b7b064a8146104cf578063b88d4fde146104ed576101da565b806379ce2040146104155780638da5cb5b1461044657806395d89b4114610464576101da565b806331b1b9781161017c5780636352211e1161014b5780636352211e1461037a57806370a08231146103aa578063715018a6146103da57806371ee2ce1146103e4576101da565b806331b1b978146102e1578063332d56d71461031157806342842e0e1461034257806343b648781461035e576101da565b8063095ea7b3116101b8578063095ea7b31461025d57806323b872dd1461027957806327b644b3146102955780632829b3a7146102c5576101da565b806301ffc9a7146101df57806306fdde031461020f578063081812fc1461022d575b600080fd5b6101f960048036038101906101f491906130a3565b61063d565b60405161020691906130eb565b60405180910390f35b61021761064f565b6040516102249190613196565b60405180910390f35b610247600480360381019061024291906131ee565b6106e1565b604051610254919061325c565b60405180910390f35b610277600480360381019061027291906132a3565b610727565b005b610293600480360381019061028e91906132e3565b61083e565b005b6102af60048036038101906102aa91906131ee565b61089e565b6040516102bc9190613442565b60405180910390f35b6102df60048036038101906102da919061367f565b610a66565b005b6102fb60048036038101906102f691906131ee565b610cb5565b6040516103089190613196565b60405180910390f35b61032b600480360381019061032691906136db565b610d5b565b604051610339929190613708565b60405180910390f35b61035c600480360381019061035791906132e3565b610e8f565b005b6103786004803603810190610373919061373f565b610eaf565b005b610394600480360381019061038f91906131ee565b6111c8565b6040516103a1919061325c565b60405180910390f35b6103c460048036038101906103bf91906136db565b61124e565b6040516103d191906137c6565b60405180910390f35b6103e2611305565b005b6103fe60048036038101906103f991906131ee565b611319565b60405161040c92919061389f565b60405180910390f35b61042f600480360381019061042a91906131ee565b61162d565b60405161043d9291906138d6565b60405180910390f35b61044e6116f9565b60405161045b919061325c565b60405180910390f35b61046c611723565b6040516104799190613196565b60405180910390f35b61049c600480360381019061049791906136db565b6117b5565b6040516104aa929190613708565b60405180910390f35b6104cd60048036038101906104c89190613932565b6119b6565b005b6104d76119cc565b6040516104e491906137c6565b60405180910390f35b61050760048036038101906105029190613a13565b6119d2565b005b610511611a34565b60405161051e91906137c6565b60405180910390f35b610541600480360381019061053c91906131ee565b611a3a565b60405161054e9190613196565b60405180910390f35b610571600480360381019061056c9190613a96565b611a4c565b005b61058d60048036038101906105889190613af2565b611a80565b005b6105a960048036038101906105a49190613b6a565b611b07565b6040516105b691906130eb565b60405180910390f35b6105d960048036038101906105d491906131ee565b611b9b565b6040516105e893929190613baa565b60405180910390f35b61060b600480360381019061060691906136db565b611c7d565b60405161061891906130eb565b60405180910390f35b61063b600480360381019061063691906136db565b611cd7565b005b600061064882611d5a565b9050919050565b60606000805461065e90613c17565b80601f016020809104026020016040519081016040528092919081815260200182805461068a90613c17565b80156106d75780601f106106ac576101008083540402835291602001916106d7565b820191906000526020600020905b8154815290600101906020018083116106ba57829003601f168201915b5050505050905090565b60006106ec82611dbb565b6004600083815260200190815260200160002060009054906101000a900473ffffffffffffffffffffffffffffffffffffffff169050919050565b6000610732826111c8565b90508073ffffffffffffffffffffffffffffffffffffffff168373ffffffffffffffffffffffffffffffffffffffff16036107a2576040517f08c379a000000000000000000000000000000000000000000000000000000000815260040161079990613cba565b60405180910390fd5b8073ffffffffffffffffffffffffffffffffffffffff166107c1611e06565b73ffffffffffffffffffffffffffffffffffffffff1614806107f057506107ef816107ea611e06565b611b07565b5b61082f576040517f08c379a000000000000000000000000000000000000000000000000000000000815260040161082690613d4c565b60405180910390fd5b6108398383611e0e565b505050565b61084f610849611e06565b82611ec7565b61088e576040517f08c379a000000000000000000000000000000000000000000000000000000000815260040161088590613dde565b60405180910390fd5b610899838383611f5c565b505050565b6060600d5482106108e4576040517f08c379a00000000000000000000000000000000000000000000000000000000081526004016108db90613e4a565b60405180910390fd5b6000600b6000848152602001908152602001600020905060008160020180549050905060008167ffffffffffffffff81111561092357610922613469565b5b60405190808252806020026020018201604052801561095657816020015b60608152602001906001900390816109415790505b50905060005b82811015610a5a57600084600201828154811061097c5761097b613e6a565b5b90600052602060002001549050600a600082815260200190815260200160002060000180546109aa90613c17565b80601f01602080910402602001604051908101604052809291908181526020018280546109d690613c17565b8015610a235780601f106109f857610100808354040283529160200191610a23565b820191906000526020600020905b815481529060010190602001808311610a0657829003601f168201915b5050505050838381518110610a3b57610a3a613e6a565b5b6020026020010181905250508080610a5290613ec8565b91505061095c565b50809350505050919050565b6000600960003373ffffffffffffffffffffffffffffffffffffffff1673ffffffffffffffffffffffffffffffffffffffff1681526020019081526020016000206000018054610ab590613c17565b905011610af7576040517f08c379a0000000000000000000000000000000000000000000000000000000008152600401610aee90613f5c565b60405180910390fd5b600d548210610b3b576040517f08c379a0000000000000000000000000000000000000000000000000000000008152600401610b3290613e4a565b60405180910390fd5b60005b8151811015610c8e57600c60405180606001604052808581526020013373ffffffffffffffffffffffffffffffffffffffff168152602001848481518110610b8957610b88613e6a565b5b602002602001015181525090806001815401808255809150506001900390600052602060002090600302016000909190919091506000820151816000015560208201518160010160006101000a81548173ffffffffffffffffffffffffffffffffffffffff021916908373ffffffffffffffffffffffffffffffffffffffff1602179055506040820151816002019081610c239190614128565b5050507fa2d6820a2f6d2e6518fa8ee53914e8ec1fd0c248a0df4db1d406e19f83c015188333848481518110610c5c57610c5b613e6a565b5b6020026020010151604051610c7393929190613baa565b60405180910390a18080610c8690613ec8565b915050610b3e565b50610cb13360405180608001604052806058815260200161493360589139611a4c565b5050565b600a602052806000526040600020600091509050806000018054610cd890613c17565b80601f0160208091040260200160405190810160405280929190818152602001828054610d0490613c17565b8015610d515780601f10610d2657610100808354040283529160200191610d51565b820191906000526020600020905b815481529060010190602001808311610d3457829003601f168201915b5050505050905081565b6009602052806000526040600020600091509050806000018054610d7e90613c17565b80601f0160208091040260200160405190810160405280929190818152602001828054610daa90613c17565b8015610df75780601f10610dcc57610100808354040283529160200191610df7565b820191906000526020600020905b815481529060010190602001808311610dda57829003601f168201915b505050505090806001018054610e0c90613c17565b80601f0160208091040260200160405190810160405280929190818152602001828054610e3890613c17565b8015610e855780601f10610e5a57610100808354040283529160200191610e85565b820191906000526020600020905b815481529060010190602001808311610e6857829003601f168201915b5050505050905082565b610eaa838383604051806020016040528060008152506119d2565b505050565b6000600960003373ffffffffffffffffffffffffffffffffffffffff1673ffffffffffffffffffffffffffffffffffffffff1681526020019081526020016000206000018054610efe90613c17565b905011610f40576040517f08c379a0000000000000000000000000000000000000000000000000000000008152600401610f3790613f5c565b60405180910390fd5b6000600d6000815480929190610f5590613ec8565b91905055905060405180606001604052803373ffffffffffffffffffffffffffffffffffffffff168152602001848152602001600067ffffffffffffffff811115610fa357610fa2613469565b5b604051908082528060200260200182016040528015610fd15781602001602082028036833780820191505090505b50815250600b600083815260200190815260200160002060008201518160000160006101000a81548173ffffffffffffffffffffffffffffffffffffffff021916908373ffffffffffffffffffffffffffffffffffffffff16021790555060208201518160010190816110449190614128565b506040820151816002019080519060200190611061929190612fcd565b509050507f70f957d5252954fa199945007895957eee1d92bb361b80849f453c82d7b7554081338560405161109893929190613baa565b60405180910390a160005b82518110156111c2576000600e60008154809291906110c190613ec8565b91905055905060405180602001604052808584815181106110e5576110e4613e6a565b5b6020026020010151815250600a600083815260200190815260200160002060008201518160000190816111189190614128565b50905050600b60008481526020019081526020016000206002018190806001815401808255809150506001900390600052602060002001600090919091909150557fa5bdacf4d1324fdd584bc65cf0315e4975d00b33a7ca0e6d0a73c88df8430b95838286858151811061118f5761118e613e6a565b5b60200260200101516040516111a6939291906141fa565b60405180910390a15080806111ba90613ec8565b9150506110a3565b50505050565b6000806111d483612255565b9050600073ffffffffffffffffffffffffffffffffffffffff168173ffffffffffffffffffffffffffffffffffffffff1603611245576040517f08c379a000000000000000000000000000000000000000000000000000000000815260040161123c90614284565b60405180910390fd5b80915050919050565b60008073ffffffffffffffffffffffffffffffffffffffff168273ffffffffffffffffffffffffffffffffffffffff16036112be576040517f08c379a00000000000000000000000000000000000000000000000000000000081526004016112b590614316565b60405180910390fd5b600360008373ffffffffffffffffffffffffffffffffffffffff1673ffffffffffffffffffffffffffffffffffffffff168152602001908152602001600020549050919050565b61130d612292565b6113176000612310565b565b606080600d548310611360576040517f08c379a000000000000000000000000000000000000000000000000000000000815260040161135790613e4a565b60405180910390fd5b6000805b600c805490508110156113bf5784600c828154811061138657611385613e6a565b5b906000526020600020906003020160000154036113ac5781806113a890613ec8565b9250505b80806113b790613ec8565b915050611364565b5060008167ffffffffffffffff8111156113dc576113db613469565b5b60405190808252806020026020018201604052801561140a5781602001602082028036833780820191505090505b50905060008267ffffffffffffffff81111561142957611428613469565b5b60405190808252806020026020018201604052801561145c57816020015b60608152602001906001900390816114475790505b5090506000805b600c8054905081101561161d5787600c828154811061148557611484613e6a565b5b9060005260206000209060030201600001540361160a57600c81815481106114b0576114af613e6a565b5b906000526020600020906003020160010160009054906101000a900473ffffffffffffffffffffffffffffffffffffffff168483815181106114f5576114f4613e6a565b5b602002602001019073ffffffffffffffffffffffffffffffffffffffff16908173ffffffffffffffffffffffffffffffffffffffff1681525050600c818154811061154357611542613e6a565b5b9060005260206000209060030201600201805461155f90613c17565b80601f016020809104026020016040519081016040528092919081815260200182805461158b90613c17565b80156115d85780601f106115ad576101008083540402835291602001916115d8565b820191906000526020600020905b8154815290600101906020018083116115bb57829003601f168201915b50505050508383815181106115f0576115ef613e6a565b5b6020026020010181905250818061160690613ec8565b9250505b808061161590613ec8565b915050611463565b5082829550955050505050915091565b600b6020528060005260406000206000915090508060000160009054906101000a900473ffffffffffffffffffffffffffffffffffffffff169080600101805461167690613c17565b80601f01602080910402602001604051908101604052809291908181526020018280546116a290613c17565b80156116ef5780601f106116c4576101008083540402835291602001916116ef565b820191906000526020600020905b8154815290600101906020018083116116d257829003601f168201915b5050505050905082565b6000600760009054906101000a900473ffffffffffffffffffffffffffffffffffffffff16905090565b60606001805461173290613c17565b80601f016020809104026020016040519081016040528092919081815260200182805461175e90613c17565b80156117ab5780601f10611780576101008083540402835291602001916117ab565b820191906000526020600020905b81548152906001019060200180831161178e57829003601f168201915b5050505050905090565b6060806000600960008573ffffffffffffffffffffffffffffffffffffffff1673ffffffffffffffffffffffffffffffffffffffff168152602001908152602001600020600001805461180790613c17565b905011611849576040517f08c379a000000000000000000000000000000000000000000000000000000000815260040161184090613f5c565b60405180910390fd5b6000600960008573ffffffffffffffffffffffffffffffffffffffff1673ffffffffffffffffffffffffffffffffffffffff168152602001908152602001600020905080600001816001018180546118a090613c17565b80601f01602080910402602001604051908101604052809291908181526020018280546118cc90613c17565b80156119195780601f106118ee57610100808354040283529160200191611919565b820191906000526020600020905b8154815290600101906020018083116118fc57829003601f168201915b5050505050915080805461192c90613c17565b80601f016020809104026020016040519081016040528092919081815260200182805461195890613c17565b80156119a55780601f1061197a576101008083540402835291602001916119a5565b820191906000526020600020905b81548152906001019060200180831161198857829003601f168201915b505050505090509250925050915091565b6119c86119c1611e06565b83836123d6565b5050565b600e5481565b6119e36119dd611e06565b83611ec7565b611a22576040517f08c379a0000000000000000000000000000000000000000000000000000000008152600401611a1990613dde565b60405180910390fd5b611a2e84848484612542565b50505050565b600d5481565b6060611a458261259e565b9050919050565b600060086000815480929190611a6190613ec8565b919050559050611a7183826126b0565b611a7b81836126ce565b505050565b604051806040016040528083815260200182815250600960003373ffffffffffffffffffffffffffffffffffffffff1673ffffffffffffffffffffffffffffffffffffffff1681526020019081526020016000206000820151816000019081611ae99190614128565b506020820151816001019081611aff9190614128565b509050505050565b6000600560008473ffffffffffffffffffffffffffffffffffffffff1673ffffffffffffffffffffffffffffffffffffffff16815260200190815260200160002060008373ffffffffffffffffffffffffffffffffffffffff1673ffffffffffffffffffffffffffffffffffffffff16815260200190815260200160002060009054906101000a900460ff16905092915050565b600c8181548110611bab57600080fd5b90600052602060002090600302016000915090508060000154908060010160009054906101000a900473ffffffffffffffffffffffffffffffffffffffff1690806002018054611bfa90613c17565b80601f0160208091040260200160405190810160405280929190818152602001828054611c2690613c17565b8015611c735780601f10611c4857610100808354040283529160200191611c73565b820191906000526020600020905b815481529060010190602001808311611c5657829003601f168201915b5050505050905083565b600080600960008473ffffffffffffffffffffffffffffffffffffffff1673ffffffffffffffffffffffffffffffffffffffff1681526020019081526020016000206000018054611ccd90613c17565b9050119050919050565b611cdf612292565b600073ffffffffffffffffffffffffffffffffffffffff168173ffffffffffffffffffffffffffffffffffffffff1603611d4e576040517f08c379a0000000000000000000000000000000000000000000000000000000008152600401611d45906143a8565b60405180910390fd5b611d5781612310565b50565b6000634906490660e01b7bffffffffffffffffffffffffffffffffffffffffffffffffffffffff1916827bffffffffffffffffffffffffffffffffffffffffffffffffffffffff19161480611db45750611db382612772565b5b9050919050565b611dc481612854565b611e03576040517f08c379a0000000000000000000000000000000000000000000000000000000008152600401611dfa90614284565b60405180910390fd5b50565b600033905090565b816004600083815260200190815260200160002060006101000a81548173ffffffffffffffffffffffffffffffffffffffff021916908373ffffffffffffffffffffffffffffffffffffffff160217905550808273ffffffffffffffffffffffffffffffffffffffff16611e81836111c8565b73ffffffffffffffffffffffffffffffffffffffff167f8c5be1e5ebec7d5bd14f71427d1e84f3dd0314c0f7b2291e5b200ac8c7c3b92560405160405180910390a45050565b600080611ed3836111c8565b90508073ffffffffffffffffffffffffffffffffffffffff168473ffffffffffffffffffffffffffffffffffffffff161480611f155750611f148185611b07565b5b80611f5357508373ffffffffffffffffffffffffffffffffffffffff16611f3b846106e1565b73ffffffffffffffffffffffffffffffffffffffff16145b91505092915050565b8273ffffffffffffffffffffffffffffffffffffffff16611f7c826111c8565b73ffffffffffffffffffffffffffffffffffffffff1614611fd2576040517f08c379a0000000000000000000000000000000000000000000000000000000008152600401611fc99061443a565b60405180910390fd5b600073ffffffffffffffffffffffffffffffffffffffff168273ffffffffffffffffffffffffffffffffffffffff1603612041576040517f08c379a0000000000000000000000000000000000000000000000000000000008152600401612038906144cc565b60405180910390fd5b61204e8383836001612895565b8273ffffffffffffffffffffffffffffffffffffffff1661206e826111c8565b73ffffffffffffffffffffffffffffffffffffffff16146120c4576040517f08c379a00000000000000000000000000000000000000000000000000000000081526004016120bb9061443a565b60405180910390fd5b6004600082815260200190815260200160002060006101000a81549073ffffffffffffffffffffffffffffffffffffffff02191690556001600360008573ffffffffffffffffffffffffffffffffffffffff1673ffffffffffffffffffffffffffffffffffffffff168152602001908152602001600020600082825403925050819055506001600360008473ffffffffffffffffffffffffffffffffffffffff1673ffffffffffffffffffffffffffffffffffffffff16815260200190815260200160002060008282540192505081905550816002600083815260200190815260200160002060006101000a81548173ffffffffffffffffffffffffffffffffffffffff021916908373ffffffffffffffffffffffffffffffffffffffff160217905550808273ffffffffffffffffffffffffffffffffffffffff168473ffffffffffffffffffffffffffffffffffffffff167fddf252ad1be2c89b69c2b068fc378daa952ba7f163c4a11628f55a4df523b3ef60405160405180910390a4612250838383600161289b565b505050565b60006002600083815260200190815260200160002060009054906101000a900473ffffffffffffffffffffffffffffffffffffffff169050919050565b61229a611e06565b73ffffffffffffffffffffffffffffffffffffffff166122b86116f9565b73ffffffffffffffffffffffffffffffffffffffff161461230e576040517f08c379a000000000000000000000000000000000000000000000000000000000815260040161230590614538565b60405180910390fd5b565b6000600760009054906101000a900473ffffffffffffffffffffffffffffffffffffffff16905081600760006101000a81548173ffffffffffffffffffffffffffffffffffffffff021916908373ffffffffffffffffffffffffffffffffffffffff1602179055508173ffffffffffffffffffffffffffffffffffffffff168173ffffffffffffffffffffffffffffffffffffffff167f8be0079c531659141344cd1fd0a4f28419497f9722a3daafe3b4186f6b6457e060405160405180910390a35050565b8173ffffffffffffffffffffffffffffffffffffffff168373ffffffffffffffffffffffffffffffffffffffff1603612444576040517f08c379a000000000000000000000000000000000000000000000000000000000815260040161243b906145a4565b60405180910390fd5b80600560008573ffffffffffffffffffffffffffffffffffffffff1673ffffffffffffffffffffffffffffffffffffffff16815260200190815260200160002060008473ffffffffffffffffffffffffffffffffffffffff1673ffffffffffffffffffffffffffffffffffffffff16815260200190815260200160002060006101000a81548160ff0219169083151502179055508173ffffffffffffffffffffffffffffffffffffffff168373ffffffffffffffffffffffffffffffffffffffff167f17307eab39ab6107e8899845ad3d59bd9653f200f220920489ca2b5937696c318360405161253591906130eb565b60405180910390a3505050565b61254d848484611f5c565b612559848484846128a1565b612598576040517f08c379a000000000000000000000000000000000000000000000000000000000815260040161258f90614636565b60405180910390fd5b50505050565b60606125a982611dbb565b60006006600084815260200190815260200160002080546125c990613c17565b80601f01602080910402602001604051908101604052809291908181526020018280546125f590613c17565b80156126425780601f1061261757610100808354040283529160200191612642565b820191906000526020600020905b81548152906001019060200180831161262557829003601f168201915b505050505090506000612653612a28565b905060008151036126685781925050506126ab565b60008251111561269d578082604051602001612685929190614692565b604051602081830303815290604052925050506126ab565b6126a684612a3f565b925050505b919050565b6126ca828260405180602001604052806000815250612aa7565b5050565b6126d782612854565b612716576040517f08c379a000000000000000000000000000000000000000000000000000000000815260040161270d90614728565b60405180910390fd5b806006600084815260200190815260200160002090816127369190614128565b507ff8e1a15aba9398e019f0b49df1a4fde98ee17ae345cb5f6b5e2c27f5033e8ce78260405161276691906137c6565b60405180910390a15050565b60007f80ac58cd000000000000000000000000000000000000000000000000000000007bffffffffffffffffffffffffffffffffffffffffffffffffffffffff1916827bffffffffffffffffffffffffffffffffffffffffffffffffffffffff1916148061283d57507f5b5e139f000000000000000000000000000000000000000000000000000000007bffffffffffffffffffffffffffffffffffffffffffffffffffffffff1916827bffffffffffffffffffffffffffffffffffffffffffffffffffffffff1916145b8061284d575061284c82612b02565b5b9050919050565b60008073ffffffffffffffffffffffffffffffffffffffff1661287683612255565b73ffffffffffffffffffffffffffffffffffffffff1614159050919050565b50505050565b50505050565b60006128c28473ffffffffffffffffffffffffffffffffffffffff16612b6c565b15612a1b578373ffffffffffffffffffffffffffffffffffffffff1663150b7a026128eb611e06565b8786866040518563ffffffff1660e01b815260040161290d949392919061479d565b6020604051808303816000875af192505050801561294957506040513d601f19601f8201168201806040525081019061294691906147fe565b60015b6129cb573d8060008114612979576040519150601f19603f3d011682016040523d82523d6000602084013e61297e565b606091505b5060008151036129c3576040517f08c379a00000000000000000000000000000000000000000000000000000000081526004016129ba90614636565b60405180910390fd5b805181602001fd5b63150b7a0260e01b7bffffffffffffffffffffffffffffffffffffffffffffffffffffffff1916817bffffffffffffffffffffffffffffffffffffffffffffffffffffffff191614915050612a20565b600190505b949350505050565b606060405180602001604052806000815250905090565b6060612a4a82611dbb565b6000612a54612a28565b90506000815111612a745760405180602001604052806000815250612a9f565b80612a7e84612b8f565b604051602001612a8f929190614692565b6040516020818303038152906040525b915050919050565b612ab18383612c5d565b612abe60008484846128a1565b612afd576040517f08c379a0000000000000000000000000000000000000000000000000000000008152600401612af490614636565b60405180910390fd5b505050565b60007f01ffc9a7000000000000000000000000000000000000000000000000000000007bffffffffffffffffffffffffffffffffffffffffffffffffffffffff1916827bffffffffffffffffffffffffffffffffffffffffffffffffffffffff1916149050919050565b6000808273ffffffffffffffffffffffffffffffffffffffff163b119050919050565b606060006001612b9e84612e7a565b01905060008167ffffffffffffffff811115612bbd57612bbc613469565b5b6040519080825280601f01601f191660200182016040528015612bef5781602001600182028036833780820191505090505b509050600082602001820190505b600115612c52578080600190039150507f3031323334353637383961626364656600000000000000000000000000000000600a86061a8153600a8581612c4657612c4561482b565b5b04945060008503612bfd575b819350505050919050565b600073ffffffffffffffffffffffffffffffffffffffff168273ffffffffffffffffffffffffffffffffffffffff1603612ccc576040517f08c379a0000000000000000000000000000000000000000000000000000000008152600401612cc3906148a6565b60405180910390fd5b612cd581612854565b15612d15576040517f08c379a0000000000000000000000000000000000000000000000000000000008152600401612d0c90614912565b60405180910390fd5b612d23600083836001612895565b612d2c81612854565b15612d6c576040517f08c379a0000000000000000000000000000000000000000000000000000000008152600401612d6390614912565b60405180910390fd5b6001600360008473ffffffffffffffffffffffffffffffffffffffff1673ffffffffffffffffffffffffffffffffffffffff16815260200190815260200160002060008282540192505081905550816002600083815260200190815260200160002060006101000a81548173ffffffffffffffffffffffffffffffffffffffff021916908373ffffffffffffffffffffffffffffffffffffffff160217905550808273ffffffffffffffffffffffffffffffffffffffff16600073ffffffffffffffffffffffffffffffffffffffff167fddf252ad1be2c89b69c2b068fc378daa952ba7f163c4a11628f55a4df523b3ef60405160405180910390a4612e7660008383600161289b565b5050565b600080600090507a184f03e93ff9f4daa797ed6e38ed64bf6a1f0100000000000000008310612ed8577a184f03e93ff9f4daa797ed6e38ed64bf6a1f0100000000000000008381612ece57612ecd61482b565b5b0492506040810190505b6d04ee2d6d415b85acef81000000008310612f15576d04ee2d6d415b85acef81000000008381612f0b57612f0a61482b565b5b0492506020810190505b662386f26fc100008310612f4457662386f26fc100008381612f3a57612f3961482b565b5b0492506010810190505b6305f5e1008310612f6d576305f5e1008381612f6357612f6261482b565b5b0492506008810190505b6127108310612f92576127108381612f8857612f8761482b565b5b0492506004810190505b60648310612fb55760648381612fab57612faa61482b565b5b0492506002810190505b600a8310612fc4576001810190505b80915050919050565b828054828255906000526020600020908101928215613009579160200282015b82811115613008578251825591602001919060010190612fed565b5b509050613016919061301a565b5090565b5b8082111561303357600081600090555060010161301b565b5090565b6000604051905090565b600080fd5b600080fd5b60007fffffffff0000000000000000000000000000000000000000000000000000000082169050919050565b6130808161304b565b811461308b57600080fd5b50565b60008135905061309d81613077565b92915050565b6000602082840312156130b9576130b8613041565b5b60006130c78482850161308e565b91505092915050565b60008115159050919050565b6130e5816130d0565b82525050565b600060208201905061310060008301846130dc565b92915050565b600081519050919050565b600082825260208201905092915050565b60005b83811015613140578082015181840152602081019050613125565b60008484015250505050565b6000601f19601f8301169050919050565b600061316882613106565b6131728185613111565b9350613182818560208601613122565b61318b8161314c565b840191505092915050565b600060208201905081810360008301526131b0818461315d565b905092915050565b6000819050919050565b6131cb816131b8565b81146131d657600080fd5b50565b6000813590506131e8816131c2565b92915050565b60006020828403121561320457613203613041565b5b6000613212848285016131d9565b91505092915050565b600073ffffffffffffffffffffffffffffffffffffffff82169050919050565b60006132468261321b565b9050919050565b6132568161323b565b82525050565b6000602082019050613271600083018461324d565b92915050565b6132808161323b565b811461328b57600080fd5b50565b60008135905061329d81613277565b92915050565b600080604083850312156132ba576132b9613041565b5b60006132c88582860161328e565b92505060206132d9858286016131d9565b9150509250929050565b6000806000606084860312156132fc576132fb613041565b5b600061330a8682870161328e565b935050602061331b8682870161328e565b925050604061332c868287016131d9565b9150509250925092565b600081519050919050565b600082825260208201905092915050565b6000819050602082019050919050565b600082825260208201905092915050565b600061337e82613106565b6133888185613362565b9350613398818560208601613122565b6133a18161314c565b840191505092915050565b60006133b88383613373565b905092915050565b6000602082019050919050565b60006133d882613336565b6133e28185613341565b9350836020820285016133f485613352565b8060005b85811015613430578484038952815161341185826133ac565b945061341c836133c0565b925060208a019950506001810190506133f8565b50829750879550505050505092915050565b6000602082019050818103600083015261345c81846133cd565b905092915050565b600080fd5b7f4e487b7100000000000000000000000000000000000000000000000000000000600052604160045260246000fd5b6134a18261314c565b810181811067ffffffffffffffff821117156134c0576134bf613469565b5b80604052505050565b60006134d3613037565b90506134df8282613498565b919050565b600067ffffffffffffffff8211156134ff576134fe613469565b5b602082029050602081019050919050565b600080fd5b600080fd5b600067ffffffffffffffff82111561353557613534613469565b5b61353e8261314c565b9050602081019050919050565b82818337600083830152505050565b600061356d6135688461351a565b6134c9565b90508281526020810184848401111561358957613588613515565b5b61359484828561354b565b509392505050565b600082601f8301126135b1576135b0613464565b5b81356135c184826020860161355a565b91505092915050565b60006135dd6135d8846134e4565b6134c9565b90508083825260208201905060208402830185811115613600576135ff613510565b5b835b8181101561364757803567ffffffffffffffff81111561362557613624613464565b5b808601613632898261359c565b85526020850194505050602081019050613602565b5050509392505050565b600082601f83011261366657613665613464565b5b81356136768482602086016135ca565b91505092915050565b6000806040838503121561369657613695613041565b5b60006136a4858286016131d9565b925050602083013567ffffffffffffffff8111156136c5576136c4613046565b5b6136d185828601613651565b9150509250929050565b6000602082840312156136f1576136f0613041565b5b60006136ff8482850161328e565b91505092915050565b60006040820190508181036000830152613722818561315d565b90508181036020830152613736818461315d565b90509392505050565b6000806040838503121561375657613755613041565b5b600083013567ffffffffffffffff81111561377457613773613046565b5b6137808582860161359c565b925050602083013567ffffffffffffffff8111156137a1576137a0613046565b5b6137ad85828601613651565b9150509250929050565b6137c0816131b8565b82525050565b60006020820190506137db60008301846137b7565b92915050565b600081519050919050565b600082825260208201905092915050565b6000819050602082019050919050565b6138168161323b565b82525050565b6000613828838361380d565b60208301905092915050565b6000602082019050919050565b600061384c826137e1565b61385681856137ec565b9350613861836137fd565b8060005b83811015613892578151613879888261381c565b975061388483613834565b925050600181019050613865565b5085935050505092915050565b600060408201905081810360008301526138b98185613841565b905081810360208301526138cd81846133cd565b90509392505050565b60006040820190506138eb600083018561324d565b81810360208301526138fd818461315d565b90509392505050565b61390f816130d0565b811461391a57600080fd5b50565b60008135905061392c81613906565b92915050565b6000806040838503121561394957613948613041565b5b60006139578582860161328e565b92505060206139688582860161391d565b9150509250929050565b600067ffffffffffffffff82111561398d5761398c613469565b5b6139968261314c565b9050602081019050919050565b60006139b66139b184613972565b6134c9565b9050828152602081018484840111156139d2576139d1613515565b5b6139dd84828561354b565b509392505050565b600082601f8301126139fa576139f9613464565b5b8135613a0a8482602086016139a3565b91505092915050565b60008060008060808587031215613a2d57613a2c613041565b5b6000613a3b8782880161328e565b9450506020613a4c8782880161328e565b9350506040613a5d878288016131d9565b925050606085013567ffffffffffffffff811115613a7e57613a7d613046565b5b613a8a878288016139e5565b91505092959194509250565b60008060408385031215613aad57613aac613041565b5b6000613abb8582860161328e565b925050602083013567ffffffffffffffff811115613adc57613adb613046565b5b613ae88582860161359c565b9150509250929050565b60008060408385031215613b0957613b08613041565b5b600083013567ffffffffffffffff811115613b2757613b26613046565b5b613b338582860161359c565b925050602083013567ffffffffffffffff811115613b5457613b53613046565b5b613b608582860161359c565b9150509250929050565b60008060408385031215613b8157613b80613041565b5b6000613b8f8582860161328e565b9250506020613ba08582860161328e565b9150509250929050565b6000606082019050613bbf60008301866137b7565b613bcc602083018561324d565b8181036040830152613bde818461315d565b9050949350505050565b7f4e487b7100000000000000000000000000000000000000000000000000000000600052602260045260246000fd5b60006002820490506001821680613c2f57607f821691505b602082108103613c4257613c41613be8565b5b50919050565b7f4552433732313a20617070726f76616c20746f2063757272656e74206f776e6560008201527f7200000000000000000000000000000000000000000000000000000000000000602082015250565b6000613ca4602183613111565b9150613caf82613c48565b604082019050919050565b60006020820190508181036000830152613cd381613c97565b9050919050565b7f4552433732313a20617070726f76652063616c6c6572206973206e6f7420746f60008201527f6b656e206f776e6572206f7220617070726f76656420666f7220616c6c000000602082015250565b6000613d36603d83613111565b9150613d4182613cda565b604082019050919050565b60006020820190508181036000830152613d6581613d29565b9050919050565b7f4552433732313a2063616c6c6572206973206e6f7420746f6b656e206f776e6560008201527f72206f7220617070726f76656400000000000000000000000000000000000000602082015250565b6000613dc8602d83613111565b9150613dd382613d6c565b604082019050919050565b60006020820190508181036000830152613df781613dbb565b9050919050565b7f496e76616c696420666f726d2049440000000000000000000000000000000000600082015250565b6000613e34600f83613111565b9150613e3f82613dfe565b602082019050919050565b60006020820190508181036000830152613e6381613e27565b9050919050565b7f4e487b7100000000000000000000000000000000000000000000000000000000600052603260045260246000fd5b7f4e487b7100000000000000000000000000000000000000000000000000000000600052601160045260246000fd5b6000613ed3826131b8565b91507fffffffffffffffffffffffffffffffffffffffffffffffffffffffffffffffff8203613f0557613f04613e99565b5b600182019050919050565b7f557365722070726f66696c65206e6f7420666f756e6400000000000000000000600082015250565b6000613f46601683613111565b9150613f5182613f10565b602082019050919050565b60006020820190508181036000830152613f7581613f39565b9050919050565b60008190508160005260206000209050919050565b60006020601f8301049050919050565b600082821b905092915050565b600060088302613fde7fffffffffffffffffffffffffffffffffffffffffffffffffffffffffffffffff82613fa1565b613fe88683613fa1565b95508019841693508086168417925050509392505050565b6000819050919050565b600061402561402061401b846131b8565b614000565b6131b8565b9050919050565b6000819050919050565b61403f8361400a565b61405361404b8261402c565b848454613fae565b825550505050565b600090565b61406861405b565b614073818484614036565b505050565b5b818110156140975761408c600082614060565b600181019050614079565b5050565b601f8211156140dc576140ad81613f7c565b6140b684613f91565b810160208510156140c5578190505b6140d96140d185613f91565b830182614078565b50505b505050565b600082821c905092915050565b60006140ff600019846008026140e1565b1980831691505092915050565b600061411883836140ee565b9150826002028217905092915050565b61413182613106565b67ffffffffffffffff81111561414a57614149613469565b5b6141548254613c17565b61415f82828561409b565b600060209050601f8311600181146141925760008415614180578287015190505b61418a858261410c565b8655506141f2565b601f1984166141a086613f7c565b60005b828110156141c8578489015182556001820191506020850194506020810190506141a3565b868310156141e557848901516141e1601f8916826140ee565b8355505b6001600288020188555050505b505050505050565b600060608201905061420f60008301866137b7565b61421c60208301856137b7565b818103604083015261422e818461315d565b9050949350505050565b7f4552433732313a20696e76616c696420746f6b656e2049440000000000000000600082015250565b600061426e601883613111565b915061427982614238565b602082019050919050565b6000602082019050818103600083015261429d81614261565b9050919050565b7f4552433732313a2061646472657373207a65726f206973206e6f74206120766160008201527f6c6964206f776e65720000000000000000000000000000000000000000000000602082015250565b6000614300602983613111565b915061430b826142a4565b604082019050919050565b6000602082019050818103600083015261432f816142f3565b9050919050565b7f4f776e61626c653a206e6577206f776e657220697320746865207a65726f206160008201527f6464726573730000000000000000000000000000000000000000000000000000602082015250565b6000614392602683613111565b915061439d82614336565b604082019050919050565b600060208201905081810360008301526143c181614385565b9050919050565b7f4552433732313a207472616e736665722066726f6d20696e636f72726563742060008201527f6f776e6572000000000000000000000000000000000000000000000000000000602082015250565b6000614424602583613111565b915061442f826143c8565b604082019050919050565b6000602082019050818103600083015261445381614417565b9050919050565b7f4552433732313a207472616e7366657220746f20746865207a65726f2061646460008201527f7265737300000000000000000000000000000000000000000000000000000000602082015250565b60006144b6602483613111565b91506144c18261445a565b604082019050919050565b600060208201905081810360008301526144e5816144a9565b9050919050565b7f4f776e61626c653a2063616c6c6572206973206e6f7420746865206f776e6572600082015250565b6000614522602083613111565b915061452d826144ec565b602082019050919050565b6000602082019050818103600083015261455181614515565b9050919050565b7f4552433732313a20617070726f766520746f2063616c6c657200000000000000600082015250565b600061458e601983613111565b915061459982614558565b602082019050919050565b600060208201905081810360008301526145bd81614581565b9050919050565b7f4552433732313a207472616e7366657220746f206e6f6e20455243373231526560008201527f63656976657220696d706c656d656e7465720000000000000000000000000000602082015250565b6000614620603283613111565b915061462b826145c4565b604082019050919050565b6000602082019050818103600083015261464f81614613565b9050919050565b600081905092915050565b600061466c82613106565b6146768185614656565b9350614686818560208601613122565b80840191505092915050565b600061469e8285614661565b91506146aa8284614661565b91508190509392505050565b7f45524337323155524953746f726167653a2055524920736574206f66206e6f6e60008201527f6578697374656e7420746f6b656e000000000000000000000000000000000000602082015250565b6000614712602e83613111565b915061471d826146b6565b604082019050919050565b6000602082019050818103600083015261474181614705565b9050919050565b600081519050919050565b600082825260208201905092915050565b600061476f82614748565b6147798185614753565b9350614789818560208601613122565b6147928161314c565b840191505092915050565b60006080820190506147b2600083018761324d565b6147bf602083018661324d565b6147cc60408301856137b7565b81810360608301526147de8184614764565b905095945050505050565b6000815190506147f881613077565b92915050565b60006020828403121561481457614813613041565b5b6000614822848285016147e9565b91505092915050565b7f4e487b7100000000000000000000000000000000000000000000000000000000600052601260045260246000fd5b7f4552433732313a206d696e7420746f20746865207a65726f2061646472657373600082015250565b6000614890602083613111565b915061489b8261485a565b602082019050919050565b600060208201905081810360008301526148bf81614883565b9050919050565b7f4552433732313a20746f6b656e20616c7265616479206d696e74656400000000600082015250565b60006148fc601c83613111565b9150614907826148c6565b602082019050919050565b6000602082019050818103600083015261492b816148ef565b905091905056fe68747470733a2f2f62616679626569617a706a6e6876786a7379783263623378617a657734726f3235676234376161693732726d6162776e686a343673666f34346f712e697066732e6e667473746f726167652e6c696e6ba264697066735822122037a7ab3e10f914fedec12f1b977e718617d57433d0b0e959d9fe6f43cb41142564736f6c63430008140033",
  "linkReferences": {},
  "deployedLinkReferences": {}
}